{
  "contractName": "IPFSStorage",
  "abi": [
    {
      "inputs": [
        {
          "internalType": "uint256",
          "name": "",
          "type": "uint256"
        }
      ],
      "name": "ipfsHashes",
      "outputs": [
        {
          "internalType": "string",
          "name": "",
          "type": "string"
        }
      ],
      "stateMutability": "view",
      "type": "function",
      "constant": true
    },
    {
      "inputs": [
        {
          "internalType": "string",
          "name": "_ipfsHash",
          "type": "string"
        }
      ],
      "name": "storeHash",
      "outputs": [],
      "stateMutability": "nonpayable",
      "type": "function"
    },
    {
      "inputs": [],
      "name": "getHashes",
      "outputs": [
        {
          "internalType": "string[]",
          "name": "",
          "type": "string[]"
        }
      ],
      "stateMutability": "view",
      "type": "function",
      "constant": true
    },
    {
      "inputs": [
        {
          "internalType": "string",
          "name": "_hashToCheck",
          "type": "string"
        }
      ],
      "name": "isHashMatch",
      "outputs": [
        {
          "internalType": "bool",
          "name": "",
          "type": "bool"
        }
      ],
      "stateMutability": "view",
      "type": "function",
      "constant": true
    }
  ],
  "bytecode": "0x608060405234801561001057600080fd5b506109f9806100206000396000f3fe608060405234801561001057600080fd5b506004361061004c5760003560e01c80634245d48e1461005157806371dc61cb1461006f5780637dbea4bf1461008b578063a4de2f5c146100bb575b600080fd5b6100596100eb565b60405161006691906106f5565b60405180910390f35b610089600480360381019061008491906104a3565b6101c4565b005b6100a560048036038101906100a091906104a3565b610203565b6040516100b29190610717565b60405180910390f35b6100d560048036038101906100d091906104e4565b6102d7565b6040516100e29190610732565b60405180910390f35b60606000805480602002602001604051908101604052809291908181526020016000905b828210156101bb57838290600052602060002001805461012e90610893565b80601f016020809104026020016040519081016040528092919081815260200182805461015a90610893565b80156101a75780601f1061017c576101008083540402835291602001916101a7565b820191906000526020600020905b81548152906001019060200180831161018a57829003601f168201915b50505050508152602001906001019061010f565b50505050905090565b6000819080600181540180825580915050600190039060005260206000200160009091909190915090805190602001906101ff929190610383565b5050565b600080600090505b6000805490508110156102cc5760008181548110610252577f4e487b7100000000000000000000000000000000000000000000000000000000600052603260045260246000fd5b9060005260206000200160405160200161026c91906106de565b604051602081830303815290604052805190602001208360405160200161029391906106c7565b6040516020818303038152906040528051906020012014156102b95760019150506102d2565b80806102c4906108c5565b91505061020b565b50600090505b919050565b600081815481106102e757600080fd5b90600052602060002001600091509050805461030290610893565b80601f016020809104026020016040519081016040528092919081815260200182805461032e90610893565b801561037b5780601f106103505761010080835404028352916020019161037b565b820191906000526020600020905b81548152906001019060200180831161035e57829003601f168201915b505050505081565b82805461038f90610893565b90600052602060002090601f0160209004810192826103b157600085556103f8565b82601f106103ca57805160ff19168380011785556103f8565b828001600101855582156103f8579182015b828111156103f75782518255916020019190600101906103dc565b5b5090506104059190610409565b5090565b5b8082111561042257600081600090555060010161040a565b5090565b600061043961043484610785565b610754565b90508281526020810184848401111561045157600080fd5b61045c848285610851565b509392505050565b600082601f83011261047557600080fd5b8135610485848260208601610426565b91505092915050565b60008135905061049d816109ac565b92915050565b6000602082840312156104b557600080fd5b600082013567ffffffffffffffff8111156104cf57600080fd5b6104db84828501610464565b91505092915050565b6000602082840312156104f657600080fd5b60006105048482850161048e565b91505092915050565b600061051983836105a5565b905092915050565b600061052c826107da565b61053681856107fd565b935083602082028501610548856107b5565b8060005b858110156105845784840389528151610565858261050d565b9450610570836107f0565b925060208a0199505060018101905061054c565b50829750879550505050505092915050565b61059f8161083b565b82525050565b60006105b0826107e5565b6105ba818561080e565b93506105ca818560208601610860565b6105d38161099b565b840191505092915050565b60006105e9826107e5565b6105f3818561081f565b9350610603818560208601610860565b61060c8161099b565b840191505092915050565b6000610622826107e5565b61062c8185610830565b935061063c818560208601610860565b80840191505092915050565b6000815461065581610893565b61065f8186610830565b9450600182166000811461067a576001811461068b576106be565b60ff198316865281860193506106be565b610694856107c5565b60005b838110156106b657815481890152600182019150602081019050610697565b838801955050505b50505092915050565b60006106d38284610617565b915081905092915050565b60006106ea8284610648565b915081905092915050565b6000602082019050818103600083015261070f8184610521565b905092915050565b600060208201905061072c6000830184610596565b92915050565b6000602082019050818103600083015261074c81846105de565b905092915050565b6000604051905081810181811067ffffffffffffffff8211171561077b5761077a61096c565b5b8060405250919050565b600067ffffffffffffffff8211156107a05761079f61096c565b5b601f19601f8301169050602081019050919050565b6000819050602082019050919050565b60008190508160005260206000209050919050565b600081519050919050565b600081519050919050565b6000602082019050919050565b600082825260208201905092915050565b600082825260208201905092915050565b600082825260208201905092915050565b600081905092915050565b60008115159050919050565b6000819050919050565b82818337600083830152505050565b60005b8381101561087e578082015181840152602081019050610863565b8381111561088d576000848401525b50505050565b600060028204905060018216806108ab57607f821691505b602082108114156108bf576108be61093d565b5b50919050565b60006108d082610847565b91507fffffffffffffffffffffffffffffffffffffffffffffffffffffffffffffffff8214156109035761090261090e565b5b600182019050919050565b7f4e487b7100000000000000000000000000000000000000000000000000000000600052601160045260246000fd5b7f4e487b7100000000000000000000000000000000000000000000000000000000600052602260045260246000fd5b7f4e487b7100000000000000000000000000000000000000000000000000000000600052604160045260246000fd5b6000601f19601f8301169050919050565b6109b581610847565b81146109c057600080fd5b5056fea264697066735822122097d9a8307325e87354c582492ed97ffa91bd0d0e6b0093f730ca3b8f831b3bd864736f6c63430008000033",
  "immutableReferences": {},
  "source": "// SPDX-License-Identifier: MIT\npragma solidity ^0.8.0;\n\ncontract IPFSStorage {\n    string[] public ipfsHashes;  \n\n    function storeHash(string memory _ipfsHash) public {\n        ipfsHashes.push(_ipfsHash);  \n    }\n    function getHashes() public view returns (string[] memory) {\n        return ipfsHashes;\n    }\n\n    function isHashMatch(string memory _hashToCheck) public view returns (bool) {\n        for (uint i = 0; i < ipfsHashes.length; i++) {\n            if (keccak256(abi.encodePacked(_hashToCheck)) == keccak256(abi.encodePacked(ipfsHashes[i]))) {\n                return true;  \n            }\n        }\n        return false;  \n    }\n}\n",
  "sourcePath": "/Users/meshari/Documents/web3_ex/venv/myproject/truffle_project/contracts/IPFSStorage.sol",
  "compiler": {
    "name": "solc",
    "version": "0.8.0+commit.c7dfd78e.Emscripten.clang"
  },
  "schemaVersion": "3.4.16",
  "updatedAt": "2024-10-04T16:35:14.934Z",
  "networkType": "ethereum",
  "devdoc": {
    "kind": "dev",
    "methods": {},
    "version": 1
  },
  "userdoc": {
    "kind": "user",
    "methods": {},
    "version": 1
  }
}